{
  "_format": "hh-sol-artifact-1",
  "contractName": "TOKENERC20",
  "sourceName": "contracts/Token.sol",
  "abi": [
    {
      "inputs": [
        {
          "internalType": "uint256",
          "name": "initialSupply",
          "type": "uint256"
        },
        {
          "internalType": "string",
          "name": "tokenName",
          "type": "string"
        },
        {
          "internalType": "string",
          "name": "tokenSymbol",
          "type": "string"
        }
      ],
      "stateMutability": "nonpayable",
      "type": "constructor"
    },
    {
      "anonymous": false,
      "inputs": [
        {
          "indexed": true,
          "internalType": "address",
          "name": "_owner",
          "type": "address"
        },
        {
          "indexed": true,
          "internalType": "address",
          "name": "_spender",
          "type": "address"
        },
        {
          "indexed": false,
          "internalType": "uint256",
          "name": "_value",
          "type": "uint256"
        }
      ],
      "name": "Approval",
      "type": "event"
    },
    {
      "anonymous": false,
      "inputs": [
        {
          "indexed": true,
          "internalType": "address",
          "name": "from",
          "type": "address"
        },
        {
          "indexed": false,
          "internalType": "uint256",
          "name": "value",
          "type": "uint256"
        }
      ],
      "name": "Burn",
      "type": "event"
    },
    {
      "anonymous": false,
      "inputs": [
        {
          "indexed": true,
          "internalType": "address",
          "name": "from",
          "type": "address"
        },
        {
          "indexed": true,
          "internalType": "address",
          "name": "to",
          "type": "address"
        },
        {
          "indexed": false,
          "internalType": "uint256",
          "name": "value",
          "type": "uint256"
        }
      ],
      "name": "Transfer",
      "type": "event"
    },
    {
      "inputs": [
        {
          "internalType": "address",
          "name": "",
          "type": "address"
        }
      ],
      "name": "LockList",
      "outputs": [
        {
          "internalType": "bool",
          "name": "",
          "type": "bool"
        }
      ],
      "stateMutability": "view",
      "type": "function"
    },
    {
      "inputs": [
        {
          "internalType": "address",
          "name": "",
          "type": "address"
        }
      ],
      "name": "LockedTokens",
      "outputs": [
        {
          "internalType": "uint256",
          "name": "",
          "type": "uint256"
        }
      ],
      "stateMutability": "view",
      "type": "function"
    },
    {
      "inputs": [
        {
          "internalType": "address",
          "name": "_owner",
          "type": "address"
        },
        {
          "internalType": "address",
          "name": "_spender",
          "type": "address"
        }
      ],
      "name": "allowance",
      "outputs": [
        {
          "internalType": "uint256",
          "name": "",
          "type": "uint256"
        }
      ],
      "stateMutability": "view",
      "type": "function"
    },
    {
      "inputs": [
        {
          "internalType": "address",
          "name": "_spender",
          "type": "address"
        },
        {
          "internalType": "uint256",
          "name": "_value",
          "type": "uint256"
        }
      ],
      "name": "approve",
      "outputs": [
        {
          "internalType": "bool",
          "name": "success",
          "type": "bool"
        }
      ],
      "stateMutability": "nonpayable",
      "type": "function"
    },
    {
      "inputs": [
        {
          "internalType": "address",
          "name": "_spender",
          "type": "address"
        },
        {
          "internalType": "uint256",
          "name": "_value",
          "type": "uint256"
        },
        {
          "internalType": "bytes",
          "name": "_extraData",
          "type": "bytes"
        }
      ],
      "name": "approveAndCall",
      "outputs": [
        {
          "internalType": "bool",
          "name": "success",
          "type": "bool"
        }
      ],
      "stateMutability": "nonpayable",
      "type": "function"
    },
    {
      "inputs": [
        {
          "internalType": "address",
          "name": "",
          "type": "address"
        }
      ],
      "name": "balanceOf",
      "outputs": [
        {
          "internalType": "uint256",
          "name": "",
          "type": "uint256"
        }
      ],
      "stateMutability": "view",
      "type": "function"
    },
    {
      "inputs": [
        {
          "internalType": "uint256",
          "name": "_value",
          "type": "uint256"
        }
      ],
      "name": "burn",
      "outputs": [
        {
          "internalType": "bool",
          "name": "",
          "type": "bool"
        }
      ],
      "stateMutability": "nonpayable",
      "type": "function"
    },
    {
      "inputs": [
        {
          "internalType": "address",
          "name": "Account",
          "type": "address"
        },
        {
          "internalType": "uint256",
          "name": "_value",
          "type": "uint256"
        }
      ],
      "name": "burnFrom",
      "outputs": [
        {
          "internalType": "bool",
          "name": "success",
          "type": "bool"
        }
      ],
      "stateMutability": "nonpayable",
      "type": "function"
    },
    {
      "inputs": [],
      "name": "decimals",
      "outputs": [
        {
          "internalType": "uint8",
          "name": "",
          "type": "uint8"
        }
      ],
      "stateMutability": "view",
      "type": "function"
    },
    {
      "inputs": [],
      "name": "name",
      "outputs": [
        {
          "internalType": "string",
          "name": "",
          "type": "string"
        }
      ],
      "stateMutability": "view",
      "type": "function"
    },
    {
      "inputs": [],
      "name": "symbol",
      "outputs": [
        {
          "internalType": "string",
          "name": "",
          "type": "string"
        }
      ],
      "stateMutability": "view",
      "type": "function"
    },
    {
      "inputs": [],
      "name": "totalSupply",
      "outputs": [
        {
          "internalType": "uint256",
          "name": "",
          "type": "uint256"
        }
      ],
      "stateMutability": "view",
      "type": "function"
    },
    {
      "inputs": [
        {
          "internalType": "address",
          "name": "_to",
          "type": "address"
        },
        {
          "internalType": "uint256",
          "name": "_value",
          "type": "uint256"
        }
      ],
      "name": "transfer",
      "outputs": [
        {
          "internalType": "bool",
          "name": "",
          "type": "bool"
        }
      ],
      "stateMutability": "nonpayable",
      "type": "function"
    },
    {
      "inputs": [
        {
          "internalType": "address",
          "name": "_from",
          "type": "address"
        },
        {
          "internalType": "address",
          "name": "_to",
          "type": "address"
        },
        {
          "internalType": "uint256",
          "name": "_value",
          "type": "uint256"
        }
      ],
      "name": "transferFrom",
      "outputs": [
        {
          "internalType": "bool",
          "name": "success",
          "type": "bool"
        }
      ],
      "stateMutability": "nonpayable",
      "type": "function"
    }
  ],
  "bytecode": "0x60806040526012600260006101000a81548160ff021916908360ff1602179055503480156200002d57600080fd5b5060405162002cfb38038062002cfb833981810160405281019062000053919062000241565b600260009054906101000a900460ff1660ff16600a62000074919062000383565b83620000819190620004c0565b600381905550600354600460003373ffffffffffffffffffffffffffffffffffffffff1673ffffffffffffffffffffffffffffffffffffffff168152602001908152602001600020819055508160009080519060200190620000e592919062000108565b508060019080519060200190620000fe92919062000108565b5050505062000692565b828054620001169062000561565b90600052602060002090601f0160209004810192826200013a576000855562000186565b82601f106200015557805160ff191683800117855562000186565b8280016001018555821562000186579182015b828111156200018557825182559160200191906001019062000168565b5b50905062000195919062000199565b5090565b5b80821115620001b45760008160009055506001016200019a565b5090565b6000620001cf620001c984620002f2565b620002c9565b905082815260208101848484011115620001e857600080fd5b620001f58482856200052b565b509392505050565b600082601f8301126200020f57600080fd5b815162000221848260208601620001b8565b91505092915050565b6000815190506200023b8162000678565b92915050565b6000806000606084860312156200025757600080fd5b600062000267868287016200022a565b935050602084015167ffffffffffffffff8111156200028557600080fd5b6200029386828701620001fd565b925050604084015167ffffffffffffffff811115620002b157600080fd5b620002bf86828701620001fd565b9150509250925092565b6000620002d5620002e8565b9050620002e3828262000597565b919050565b6000604051905090565b600067ffffffffffffffff82111562000310576200030f6200062b565b5b6200031b826200065a565b9050602081019050919050565b6000808291508390505b60018511156200037a57808604811115620003525762000351620005cd565b5b6001851615620003625780820291505b808102905062000372856200066b565b945062000332565b94509492505050565b6000620003908262000521565b91506200039d8362000521565b9250620003cc7fffffffffffffffffffffffffffffffffffffffffffffffffffffffffffffffff8484620003d4565b905092915050565b600082620003e65760019050620004b9565b81620003f65760009050620004b9565b81600181146200040f57600281146200041a5762000450565b6001915050620004b9565b60ff8411156200042f576200042e620005cd565b5b8360020a915084821115620004495762000448620005cd565b5b50620004b9565b5060208310610133831016604e8410600b84101617156200048a5782820a905083811115620004845762000483620005cd565b5b620004b9565b62000499848484600162000328565b92509050818404811115620004b357620004b2620005cd565b5b81810290505b9392505050565b6000620004cd8262000521565b9150620004da8362000521565b9250817fffffffffffffffffffffffffffffffffffffffffffffffffffffffffffffffff0483118215151615620005165762000515620005cd565b5b828202905092915050565b6000819050919050565b60005b838110156200054b5780820151818401526020810190506200052e565b838111156200055b576000848401525b50505050565b600060028204905060018216806200057a57607f821691505b60208210811415620005915762000590620005fc565b5b50919050565b620005a2826200065a565b810181811067ffffffffffffffff82111715620005c457620005c36200062b565b5b80604052505050565b7f4e487b7100000000000000000000000000000000000000000000000000000000600052601160045260246000fd5b7f4e487b7100000000000000000000000000000000000000000000000000000000600052602260045260246000fd5b7f4e487b7100000000000000000000000000000000000000000000000000000000600052604160045260246000fd5b6000601f19601f8301169050919050565b60008160011c9050919050565b620006838162000521565b81146200068f57600080fd5b50565b61265980620006a26000396000f3fe608060405234801561001057600080fd5b50600436106100ea5760003560e01c806370a082311161008c578063a26bddb411610066578063a26bddb414610287578063a9059cbb146102b7578063cae9ca51146102e7578063dd62ed3e14610317576100ea565b806370a082311461020957806379cc67901461023957806395d89b4114610269576100ea565b80631f846df4116100c85780631f846df41461015b57806323b872dd1461018b578063313ce567146101bb57806342966c68146101d9576100ea565b806306fdde03146100ef578063095ea7b31461010d57806318160ddd1461013d575b600080fd5b6100f7610347565b6040516101049190611cd2565b60405180910390f35b6101276004803603810190610122919061192a565b6103d5565b6040516101349190611cb7565b60405180910390f35b6101456105b9565b6040516101529190611e94565b60405180910390f35b61017560048036038101906101709190611876565b6105bf565b6040516101829190611cb7565b60405180910390f35b6101a560048036038101906101a091906118db565b6105df565b6040516101b29190611cb7565b60405180910390f35b6101c36106aa565b6040516101d09190611eaf565b60405180910390f35b6101f360048036038101906101ee91906119cd565b6106bd565b6040516102009190611cb7565b60405180910390f35b610223600480360381019061021e9190611876565b6109e5565b6040516102309190611e94565b60405180910390f35b610253600480360381019061024e919061192a565b6109fd565b6040516102609190611cb7565b60405180910390f35b610271610e70565b60405161027e9190611cd2565b60405180910390f35b6102a1600480360381019061029c9190611876565b610efe565b6040516102ae9190611e94565b60405180910390f35b6102d160048036038101906102cc919061192a565b610f16565b6040516102de9190611cb7565b60405180910390f35b61030160048036038101906102fc9190611966565b610f2d565b60405161030e9190611cb7565b60405180910390f35b610331600480360381019061032c919061189f565b610fc6565b60405161033e9190611e94565b60405180910390f35b6000805461035490612079565b80601f016020809104026020016040519081016040528092919081815260200182805461038090612079565b80156103cd5780601f106103a2576101008083540402835291602001916103cd565b820191906000526020600020905b8154815290600101906020018083116103b057829003601f168201915b505050505081565b600080610444836040518060600160405280602c81526020016125ae602c9139600460003373ffffffffffffffffffffffffffffffffffffffff1673ffffffffffffffffffffffffffffffffffffffff1681526020019081526020016000205461104d9092919063ffffffff16565b9050600760003373ffffffffffffffffffffffffffffffffffffffff1673ffffffffffffffffffffffffffffffffffffffff168152602001908152602001600020548110156104c8576040517f08c379a00000000000000000000000000000000000000000000000000000000081526004016104bf90611e54565b60405180910390fd5b82600560003373ffffffffffffffffffffffffffffffffffffffff1673ffffffffffffffffffffffffffffffffffffffff16815260200190815260200160002060008673ffffffffffffffffffffffffffffffffffffffff1673ffffffffffffffffffffffffffffffffffffffff168152602001908152602001600020819055508373ffffffffffffffffffffffffffffffffffffffff163373ffffffffffffffffffffffffffffffffffffffff167f8c5be1e5ebec7d5bd14f71427d1e84f3dd0314c0f7b2291e5b200ac8c7c3b925856040516105a69190611e94565b60405180910390a3600191505092915050565b60035481565b60066020528060005260406000206000915054906101000a900460ff1681565b60006105ec8484846110b1565b61069f843361069a8560405180606001604052806028815260200161256260289139600560008b73ffffffffffffffffffffffffffffffffffffffff1673ffffffffffffffffffffffffffffffffffffffff16815260200190815260200160002060003373ffffffffffffffffffffffffffffffffffffffff1673ffffffffffffffffffffffffffffffffffffffff1681526020019081526020016000205461104d9092919063ffffffff16565b6115b6565b600190509392505050565b600260009054906101000a900460ff1681565b6000801515600660003373ffffffffffffffffffffffffffffffffffffffff1673ffffffffffffffffffffffffffffffffffffffff16815260200190815260200160002060009054906101000a900460ff16151514610751576040517f08c379a000000000000000000000000000000000000000000000000000000000815260040161074890611d94565b60405180910390fd5b60006107bf8360405180606001604052806026815260200161251460269139600460003373ffffffffffffffffffffffffffffffffffffffff1673ffffffffffffffffffffffffffffffffffffffff1681526020019081526020016000205461104d9092919063ffffffff16565b9050600760003373ffffffffffffffffffffffffffffffffffffffff1673ffffffffffffffffffffffffffffffffffffffff16815260200190815260200160002054811015610843576040517f08c379a000000000000000000000000000000000000000000000000000000000815260040161083a90611d14565b60405180910390fd5b6108af8360405180606001604052806023815260200161260160239139600460003373ffffffffffffffffffffffffffffffffffffffff1673ffffffffffffffffffffffffffffffffffffffff1681526020019081526020016000205461104d9092919063ffffffff16565b600460003373ffffffffffffffffffffffffffffffffffffffff1673ffffffffffffffffffffffffffffffffffffffff16815260200190815260200160002081905550610921836040518060600160405280602781526020016125da6027913960035461104d9092919063ffffffff16565b6003819055503373ffffffffffffffffffffffffffffffffffffffff167fcc16f5dbb4873280815c1ee09dbd06736cffcc184412cf7a71a0fdb75d397ca58460405161096d9190611e94565b60405180910390a2600073ffffffffffffffffffffffffffffffffffffffff163373ffffffffffffffffffffffffffffffffffffffff167fddf252ad1be2c89b69c2b068fc378daa952ba7f163c4a11628f55a4df523b3ef856040516109d39190611e94565b60405180910390a36001915050919050565b60046020528060005260406000206000915090505481565b6000801515600660003373ffffffffffffffffffffffffffffffffffffffff1673ffffffffffffffffffffffffffffffffffffffff16815260200190815260200160002060009054906101000a900460ff16151514610a91576040517f08c379a0000000000000000000000000000000000000000000000000000000008152600401610a8890611d94565b60405180910390fd5b60001515600660008573ffffffffffffffffffffffffffffffffffffffff1673ffffffffffffffffffffffffffffffffffffffff16815260200190815260200160002060009054906101000a900460ff16151514610b24576040517f08c379a0000000000000000000000000000000000000000000000000000000008152600401610b1b90611dd4565b60405180910390fd5b60008073ffffffffffffffffffffffffffffffffffffffff168473ffffffffffffffffffffffffffffffffffffffff161415610b95576040517f08c379a0000000000000000000000000000000000000000000000000000000008152600401610b8c90611e14565b60405180910390fd5b610c488433610c438660405180606001604052806024815260200161258a60249139600560008b73ffffffffffffffffffffffffffffffffffffffff1673ffffffffffffffffffffffffffffffffffffffff16815260200190815260200160002060003373ffffffffffffffffffffffffffffffffffffffff1673ffffffffffffffffffffffffffffffffffffffff1681526020019081526020016000205461104d9092919063ffffffff16565b6115b6565b610cb48360405180606001604052806028815260200161253a60289139600460008873ffffffffffffffffffffffffffffffffffffffff1673ffffffffffffffffffffffffffffffffffffffff1681526020019081526020016000205461104d9092919063ffffffff16565b9050600760008573ffffffffffffffffffffffffffffffffffffffff1673ffffffffffffffffffffffffffffffffffffffff16815260200190815260200160002054811015610d38576040517f08c379a0000000000000000000000000000000000000000000000000000000008152600401610d2f90611e74565b60405180910390fd5b80600460008673ffffffffffffffffffffffffffffffffffffffff1673ffffffffffffffffffffffffffffffffffffffff16815260200190815260200160002081905550610dab836040518060600160405280602681526020016124ee6026913960035461104d9092919063ffffffff16565b6003819055508373ffffffffffffffffffffffffffffffffffffffff167fcc16f5dbb4873280815c1ee09dbd06736cffcc184412cf7a71a0fdb75d397ca584604051610df79190611e94565b60405180910390a2600073ffffffffffffffffffffffffffffffffffffffff168473ffffffffffffffffffffffffffffffffffffffff167fddf252ad1be2c89b69c2b068fc378daa952ba7f163c4a11628f55a4df523b3ef85604051610e5d9190611e94565b60405180910390a3600191505092915050565b60018054610e7d90612079565b80601f0160208091040260200160405190810160405280929190818152602001828054610ea990612079565b8015610ef65780601f10610ecb57610100808354040283529160200191610ef6565b820191906000526020600020905b815481529060010190602001808311610ed957829003601f168201915b505050505081565b60076020528060005260406000206000915090505481565b6000610f233384846110b1565b6001905092915050565b600080849050610f3d85856103d5565b15610fbd578073ffffffffffffffffffffffffffffffffffffffff16638f4ffcb1338630876040518563ffffffff1660e01b8152600401610f819493929190611c6b565b600060405180830381600087803b158015610f9b57600080fd5b505af1158015610faf573d6000803e3d6000fd5b505050506001915050610fbf565b505b9392505050565b6000600560008473ffffffffffffffffffffffffffffffffffffffff1673ffffffffffffffffffffffffffffffffffffffff16815260200190815260200160002060008373ffffffffffffffffffffffffffffffffffffffff1673ffffffffffffffffffffffffffffffffffffffff16815260200190815260200160002054905092915050565b6000838311158290611095576040517f08c379a000000000000000000000000000000000000000000000000000000000815260040161108c9190611cd2565b60405180910390fd5b50600083856110a49190611fae565b9050809150509392505050565b60008073ffffffffffffffffffffffffffffffffffffffff168473ffffffffffffffffffffffffffffffffffffffff161415611122576040517f08c379a000000000000000000000000000000000000000000000000000000000815260040161111990611df4565b60405180910390fd5b600073ffffffffffffffffffffffffffffffffffffffff168373ffffffffffffffffffffffffffffffffffffffff161415611192576040517f08c379a000000000000000000000000000000000000000000000000000000000815260040161118990611cf4565b60405180910390fd5b60001515600660003373ffffffffffffffffffffffffffffffffffffffff1673ffffffffffffffffffffffffffffffffffffffff16815260200190815260200160002060009054906101000a900460ff16151514611225576040517f08c379a000000000000000000000000000000000000000000000000000000000815260040161121c90611d74565b60405180910390fd5b60001515600660008673ffffffffffffffffffffffffffffffffffffffff1673ffffffffffffffffffffffffffffffffffffffff16815260200190815260200160002060009054906101000a900460ff161515146112b8576040517f08c379a00000000000000000000000000000000000000000000000000000000081526004016112af90611db4565b60405180910390fd5b60001515600660008573ffffffffffffffffffffffffffffffffffffffff1673ffffffffffffffffffffffffffffffffffffffff16815260200190815260200160002060009054906101000a900460ff1615151461134b576040517f08c379a000000000000000000000000000000000000000000000000000000000815260040161134290611d54565b60405180910390fd5b6113b78260405180606001604052806026815260200161251460269139600460008873ffffffffffffffffffffffffffffffffffffffff1673ffffffffffffffffffffffffffffffffffffffff1681526020019081526020016000205461104d9092919063ffffffff16565b9050600760008573ffffffffffffffffffffffffffffffffffffffff1673ffffffffffffffffffffffffffffffffffffffff1681526020019081526020016000205481101561143b576040517f08c379a000000000000000000000000000000000000000000000000000000000815260040161143290611d14565b60405180910390fd5b80600460008673ffffffffffffffffffffffffffffffffffffffff1673ffffffffffffffffffffffffffffffffffffffff16815260200190815260200160002081905550611508826040518060400160405280601881526020017f45524332303a204164646974696f6e206f766572666c6f770000000000000000815250600460008773ffffffffffffffffffffffffffffffffffffffff1673ffffffffffffffffffffffffffffffffffffffff168152602001908152602001600020546117819092919063ffffffff16565b600460008573ffffffffffffffffffffffffffffffffffffffff1673ffffffffffffffffffffffffffffffffffffffff168152602001908152602001600020819055508273ffffffffffffffffffffffffffffffffffffffff168473ffffffffffffffffffffffffffffffffffffffff167fddf252ad1be2c89b69c2b068fc378daa952ba7f163c4a11628f55a4df523b3ef846040516115a89190611e94565b60405180910390a350505050565b600073ffffffffffffffffffffffffffffffffffffffff168373ffffffffffffffffffffffffffffffffffffffff161415611626576040517f08c379a000000000000000000000000000000000000000000000000000000000815260040161161d90611e34565b60405180910390fd5b600073ffffffffffffffffffffffffffffffffffffffff168273ffffffffffffffffffffffffffffffffffffffff161415611696576040517f08c379a000000000000000000000000000000000000000000000000000000000815260040161168d90611d34565b60405180910390fd5b80600560008573ffffffffffffffffffffffffffffffffffffffff1673ffffffffffffffffffffffffffffffffffffffff16815260200190815260200160002060008473ffffffffffffffffffffffffffffffffffffffff1673ffffffffffffffffffffffffffffffffffffffff168152602001908152602001600020819055508173ffffffffffffffffffffffffffffffffffffffff168373ffffffffffffffffffffffffffffffffffffffff167f8c5be1e5ebec7d5bd14f71427d1e84f3dd0314c0f7b2291e5b200ac8c7c3b925836040516117749190611e94565b60405180910390a3505050565b60008083856117909190611f58565b90508481101583906117d8576040517f08c379a00000000000000000000000000000000000000000000000000000000081526004016117cf9190611cd2565b60405180910390fd5b50809150509392505050565b60006117f76117f284611eef565b611eca565b90508281526020810184848401111561180f57600080fd5b61181a848285612037565b509392505050565b600081359050611831816124bf565b92915050565b600082601f83011261184857600080fd5b81356118588482602086016117e4565b91505092915050565b600081359050611870816124d6565b92915050565b60006020828403121561188857600080fd5b600061189684828501611822565b91505092915050565b600080604083850312156118b257600080fd5b60006118c085828601611822565b92505060206118d185828601611822565b9150509250929050565b6000806000606084860312156118f057600080fd5b60006118fe86828701611822565b935050602061190f86828701611822565b925050604061192086828701611861565b9150509250925092565b6000806040838503121561193d57600080fd5b600061194b85828601611822565b925050602061195c85828601611861565b9150509250929050565b60008060006060848603121561197b57600080fd5b600061198986828701611822565b935050602061199a86828701611861565b925050604084013567ffffffffffffffff8111156119b757600080fd5b6119c386828701611837565b9150509250925092565b6000602082840312156119df57600080fd5b60006119ed84828501611861565b91505092915050565b6119ff81611fe2565b82525050565b611a0e81611ff4565b82525050565b6000611a1f82611f20565b611a298185611f36565b9350611a39818560208601612046565b611a4281612169565b840191505092915050565b6000611a5882611f2b565b611a628185611f47565b9350611a72818560208601612046565b611a7b81612169565b840191505092915050565b6000611a93602383611f47565b9150611a9e8261217a565b604082019050919050565b6000611ab6603483611f47565b9150611ac1826121c9565b604082019050919050565b6000611ad9602283611f47565b9150611ae482612218565b604082019050919050565b6000611afc601a83611f47565b9150611b0782612267565b602082019050919050565b6000611b1f601683611f47565b9150611b2a82612290565b602082019050919050565b6000611b42601483611f47565b9150611b4d826122b9565b602082019050919050565b6000611b65601683611f47565b9150611b70826122e2565b602082019050919050565b6000611b88601583611f47565b9150611b938261230b565b602082019050919050565b6000611bab602583611f47565b9150611bb682612334565b604082019050919050565b6000611bce602183611f47565b9150611bd982612383565b604082019050919050565b6000611bf1602483611f47565b9150611bfc826123d2565b604082019050919050565b6000611c14602d83611f47565b9150611c1f82612421565b604082019050919050565b6000611c37603183611f47565b9150611c4282612470565b604082019050919050565b611c5681612020565b82525050565b611c658161202a565b82525050565b6000608082019050611c8060008301876119f6565b611c8d6020830186611c4d565b611c9a60408301856119f6565b8181036060830152611cac8184611a14565b905095945050505050565b6000602082019050611ccc6000830184611a05565b92915050565b60006020820190508181036000830152611cec8184611a4d565b905092915050565b60006020820190508181036000830152611d0d81611a86565b9050919050565b60006020820190508181036000830152611d2d81611aa9565b9050919050565b60006020820190508181036000830152611d4d81611acc565b9050919050565b60006020820190508181036000830152611d6d81611aef565b9050919050565b60006020820190508181036000830152611d8d81611b12565b9050919050565b60006020820190508181036000830152611dad81611b35565b9050919050565b60006020820190508181036000830152611dcd81611b58565b9050919050565b60006020820190508181036000830152611ded81611b7b565b9050919050565b60006020820190508181036000830152611e0d81611b9e565b9050919050565b60006020820190508181036000830152611e2d81611bc1565b9050919050565b60006020820190508181036000830152611e4d81611be4565b9050919050565b60006020820190508181036000830152611e6d81611c07565b9050919050565b60006020820190508181036000830152611e8d81611c2a565b9050919050565b6000602082019050611ea96000830184611c4d565b92915050565b6000602082019050611ec46000830184611c5c565b92915050565b6000611ed4611ee5565b9050611ee082826120ab565b919050565b6000604051905090565b600067ffffffffffffffff821115611f0a57611f0961213a565b5b611f1382612169565b9050602081019050919050565b600081519050919050565b600081519050919050565b600082825260208201905092915050565b600082825260208201905092915050565b6000611f6382612020565b9150611f6e83612020565b9250827fffffffffffffffffffffffffffffffffffffffffffffffffffffffffffffffff03821115611fa357611fa26120dc565b5b828201905092915050565b6000611fb982612020565b9150611fc483612020565b925082821015611fd757611fd66120dc565b5b828203905092915050565b6000611fed82612000565b9050919050565b60008115159050919050565b600073ffffffffffffffffffffffffffffffffffffffff82169050919050565b6000819050919050565b600060ff82169050919050565b82818337600083830152505050565b60005b83811015612064578082015181840152602081019050612049565b83811115612073576000848401525b50505050565b6000600282049050600182168061209157607f821691505b602082108114156120a5576120a461210b565b5b50919050565b6120b482612169565b810181811067ffffffffffffffff821117156120d3576120d261213a565b5b80604052505050565b7f4e487b7100000000000000000000000000000000000000000000000000000000600052601160045260246000fd5b7f4e487b7100000000000000000000000000000000000000000000000000000000600052602260045260246000fd5b7f4e487b7100000000000000000000000000000000000000000000000000000000600052604160045260246000fd5b6000601f19601f8301169050919050565b7f45524332303a207472616e7366657220746f20746865207a65726f206164647260008201527f6573730000000000000000000000000000000000000000000000000000000000602082015250565b7f45524332303a207472616e7366657220616d6f756e742065786365656473205360008201527f656e64657273204c6f636b656420416d6f756e74000000000000000000000000602082015250565b7f45524332303a20617070726f766520746f20746865207a65726f20616464726560008201527f7373000000000000000000000000000000000000000000000000000000000000602082015250565b7f45524332303a2052656365697069656e74204c6f636b65642021000000000000600082015250565b7f45524332303a2043616c6c6572204c6f636b6564202100000000000000000000600082015250565b7f45524332303a2055736572204c6f636b65642021000000000000000000000000600082015250565b7f45524332303a2053656e646572204c6f636b6564202100000000000000000000600082015250565b7f45524332303a204f776e6572204c6f636b656420210000000000000000000000600082015250565b7f45524332303a207472616e736665722066726f6d20746865207a65726f20616460008201527f6472657373000000000000000000000000000000000000000000000000000000602082015250565b7f45524332303a204275726e2066726f6d20746865207a65726f2061646472657360008201527f7300000000000000000000000000000000000000000000000000000000000000602082015250565b7f45524332303a20617070726f76652066726f6d20746865207a65726f2061646460008201527f7265737300000000000000000000000000000000000000000000000000000000602082015250565b7f45524332303a20417070726f76616c20616d6f756e742065786365656473206c60008201527f6f636b656420616d6f756e742000000000000000000000000000000000000000602082015250565b7f45524332303a204275726e20616d6f756e742065786365656473206163636f7560008201527f6e7473206c6f636b656420616d6f756e74000000000000000000000000000000602082015250565b6124c881611fe2565b81146124d357600080fd5b50565b6124df81612020565b81146124ea57600080fd5b5056fe45524332303a204275726e20416d6f756e74206578636565647320746f74616c537570706c7945524332303a207472616e7366657220616d6f756e7420657863656564732062616c616e636545524332303a205472616e7366657220616d6f756e74206578636565647320616c6c6f77616e636545524332303a207472616e7366657220616d6f756e74206578636565647320616c6c6f77616e636545524332303a206275726e20616d6f756e74206578636565647320616c6c6f77616e636545524332303a20416c6c6f77616e636520657863656564732062616c616e6365206f6620617070726f76657245524332303a204275726e20616d6f756e74206578636565647320746f74616c20737570706c7945524332303a204275726e20616d6f756e7420657863656564732062616c616e63652ea2646970667358221220c5bb5006a3ed6aaa56945c5d1b5ce3679588943cd582492da799e44573df92ba64736f6c63430008040033",
  "linkReferences": {},
  "deployedLinkReferences": {}
}